:020000040800F2
:1000000070040020010100089B040008930400080C
:100010009704000849010008D1060008000000000C
:100020000000000000000000000000003105000892
:1000300065030008000000009D0400080506000894
:100040001B0100081B0100081B0100081B01000820
:100050001B0100081B0100081B0100081B01000810
:100060001B0100081B0100081B0100081B01000800
:100070001B0100081B0100081B0100081B010008F0
:100080001B0100081B0100081B0100081B010008E0
:100090001B0100081B0100081B0100081B010008D0
:1000A0001B0100081B0100081B0100081B010008C0
:1000B0001B0100081B0100081B0100081B010008B0
:1000C0001B0100081B0100081B0100081B010008A0
:1000D0001B0100081B0100081B0100081B01000890
:1000E0001B0100081B0100081B010008DFF80CD0F1
:1000F00000F018F800480047590800087004002074
:100100000648804706480047FEE7FEE7FEE7FEE7B1
:10011000FEE7FEE7FEE7FEE7FEE7FEE77106000802
:10012000ED000008064C074D06E0E06840F00103D2
:1001300094E8070098471034AC42F6D3FFF7DAFF93
:10014000400B0008600B000800BFFEE710B500F090
:1001500005F810BD10B500F01DF810BD70B50025F4
:100160000DE0302000F0E2F800F0BCFC0446142C56
:1001700000D106E0322000F0BCFA681CC5B2052DA3
:10018000EFDB00BF1021024800F081F9204670BD6E
:100190000008014070B500250DE0312000F0C6F8E0
:1001A00000F0A0FC0446142C00D106E0322000F040
:1001B000A0FA681CC5B2052DEFDB00BF1021024874
:1001C00000F065F9204670BD0008014010B500F050
:1001D00051F8062000F0AAF8652000F0BDF800F004
:1001E00021F8044610210E4800F051F99A2C01D054
:1001F000FA2010BD152000F099F8062000F0ACF8A8
:10020000012000F076FA00F00DF8044610210448B1
:1002100000F03DF9512C01D11420EAE7FA20E8E77B
:100220000008014010B5002000F002F810BD0000E9
:1002300070B5054600BF02210D4800F04DF90028B9
:10024000F9D029460A4800F053F900BF01210848B7
:1002500000F042F90028F9D00A2401E0601EC4B27F
:10026000002CFBDC024800F040F9C0B270BD000079
:100270000030014000B587B0012141F2040000F0D8
:100280000FF90121042000F00BF9E020ADF8040083
:1002900003208DF8060018208DF8070001A92148D9
:1002A00000F061F81020ADF804008DF8070003207D
:1002B0008DF8060001A91B4800F055F80820ADF89C
:1002C000040004208DF8070001A9164800F04BF83F
:1002D0001021144800F0DBF80020ADF808004FF4BE
:1002E0008270ADF80A000020ADF80C00ADF80E00E9
:1002F000ADF810004FF40070ADF812001820ADF802
:1003000014000020ADF816000720ADF8180002A96F
:10031000054800F0EFF80121034800F0D1F807B0DC
:1003200000BD0000000801400030014010B5044647
:100330001021084800F0ABF8012000F0E6F9102188
:10034000044800F0A2F8012000F0DFF92046FFF792
:100350006FFF10BD0008014010B504462046FFF7AE
:1003600067FF10BD70472DE9F041024600250026C9
:10037000002000230024002791F803C00CF00F0593
:1003800091F803C01CF0100F03D091F802C04CEAA2
:100390000505B1F800C01CF0FF0F31D01468002033
:1003A0002BE04FF0010C0CFA00F3B1F800C00CEA9E
:1003B00003069E4220D183004FF00F0C0CFA03F786
:1003C000BC4305FA03FC4CEA040491F803C0BCF1F9
:1003D000280F06D14FF0010C0CFA00FCC2F814C033
:1003E0000AE091F803C0BCF1480F05D14FF0010CB1
:1003F0000CFA00FCC2F810C0401C0828D1D31460CD
:10040000B1F800C0BCF1FF0F34DD546800202EE0CD
:1004100000F1080C4FF0010808FA0CF3B1F800C025
:100420000CEA03069E4221D183004FF00F0C0CFA18
:1004300003F7BC4305FA03FC4CEA040491F803C03B
:10044000BCF1280F05D100F1080C08FA0CF8C2F82D
:10045000148091F803C0BCF1480F07D100F1080CDB
:100460004FF0010808FA0CF8C2F81080401C082868
:10047000CED35460BDE8F0810246002093680B4261
:1004800001D0012000E00020704741617047016108
:10049000704700BFFEE700BFFEE7704770470000EF
:1004A00029B1064A92690243044B9A6104E0034A67
:1004B00092698243014B9A6170470000001002402C
:1004C00021B1028842F04002028004E002884FF627
:1004D000BF731A40028070470246002013890B4206
:1004E00001D0012000E00020704701468889704754
:1004F0008181704710B50022028802F441520B88B6
:100500004C8823438C882343CC8823430C89234382
:100510004C8923438C892343CC8923431A4302808B
:10052000838B4FF2FF74234083830B8A038210BDB9
:10053000704710B500F002F810BD00000021002047
:100540002E4A126842F480322C4B1A6000BF2B4AAC
:10055000126802F40030491C10B9B1F5A06FF6D151
:10056000264A126812F4003F01D0012000E000206A
:10057000012842D1224A126842F01002204B1A6030
:100580001A46126822F003021A601A46126842F0F4
:1005900002021A60194A5268184B5A601A46526889
:1005A0005A601A46526842F480625A601A4652688B
:1005B00022F47C125A601A46526842F4E8125A60D9
:1005C0001A46126842F080721A6000BF0B4A126825
:1005D00012F0007FFAD0094A526822F00302074B5A
:1005E0005A601A46526842F002025A6000BF034A3B
:1005F000526802F00C02082AF9D17047001002403C
:100600000020024015480068401C14490860012081
:1006100013490870114800680A21B0FBF1F201FB90
:10062000120010B901200F4908700C4800686421BD
:10063000B0FBF1F201FB120010B901200A49087069
:10064000064800684FF47A71B0FBF1F201FB12002A
:1006500010B90120054908707047000058000020BB
:1006600045000020460000204700002048000020F0
:1006700010B51348006840F00100114908600846B1
:100680004068104908400E494860084600680E4915
:1006900008400B4908600846006820F48020086084
:1006A0000846406820F4FE0048604FF41F00886050
:1006B000FFF73FFF4FF000600449086010BD0000E5
:1006C000001002400000FFF8FFFFF6FE08ED00E01A
:1006D00000BFFEE702E008C8121F08C1002AFAD1D5
:1006E00070477047002001E001C1121F002AFBD1B2
:1006F000704700B5034602E0642000F006F81800D9
:10070000A3F101018BB2F7D100BD07E0482101E060
:100710004A1ED1B20029FBDC421E90B20028F5DC53
:10072000704700000A480078012802D100200849DB
:10073000087008480078012802D100200549087097
:1007400005480078012802D100200349087070474D
:1007500042000020430000204400002008B5012191
:100760001020FFF79DFE4FF46040ADF8000004201C
:100770008DF8030069460248FFF7F5FD08BD00004B
:10078000001001401F48806810F4005F0CD11E4823
:100790000088401C1C49088008460088052806D1AE
:1007A00001201A49087002E0002017490880154806
:1007B000806810F4804F0CD115480088401C144903
:1007C000088008460088052806D1012011490870D4
:1007D00002E000200E4908800A48806810F4004FAB
:1007E0000CD10D480088401C0B4908800846008841
:1007F000052806D101200949087002E000200649B9
:1008000008807047001001403C000020420000209A
:100810003E00002043000020400000204400002053
:1008200008B501210820FFF73BFE4FF44050ADF81A
:10083000000014208DF8030003208DF802006946A3
:100840000448FFF790FD4FF48050024914310860CE
:10085000086008BD000C014000F06CF8FFF77EFF57
:1008600000F09CF8FFF7DCFF642000F047F8FFF78A
:10087000ADFC002412E0FFF769FC142808D1FFF753
:1008800069FC142800D10BE0C82000F037F803E021
:100890004FF4FA7000F032F8601CC4B20A2CEADBA4
:1008A00000BF21E011480078012806D100200F493F
:1008B0000870FFF767FFFFF735FF0D480078012844
:1008C00002D100200A4908700A480078012804D1A2
:1008D00000200849087000F01FF807480078012838
:1008E00002D1002004490870DCE700004500002028
:1008F00046000020470000204800002008E042F6A3
:10090000E06101E04A1E91B20029FBDC421E90B278
:100910000028F4DC7047000000B5402000F0F2F839
:100920000349C02000F0F8F8882000F0EBF800BD83
:100930001C00002030B5164800684FF47A72B0FBF6
:10094000F2F1B1F1807F01D301201DE021F07F4061
:10095000401E4FF0E022506150170F22002807DAA6
:1009600013071D0E0B4B00F00F04241F1D5503E051
:1009700013071C0E084B1C5400BF00204FF0E02250
:10098000906107201061002008B100BFFEE730BD74
:100990005C00002018ED00E000E400E008B5012153
:1009A0000820FFF77DFDC020ADF8000014208DF871
:1009B000030002208DF8020069460248FFF7D3FCCD
:1009C00008BD0000000C014000B51148006820F08F
:1009D00070400F4908600846006840F0C040086059
:1009E00080200B491031086040200860012000F091
:1009F0006DF88020064914310860012000F066F887
:100A00004020034914310860012000F05FF800BD68
:100A1000000C014000B51248006820F070401049F9
:100A200008600846006840F0C040086080200C491B
:100A3000143108604020091F0860012000F046F8CA
:100A40008020074910310860012000F03FF8402065
:100A5000034914310860012000F038F800BD00009F
:100A6000000C014030B503461748006820F0704084
:100A7000154908600846006840F0C040086000243E
:100A80001CE003F0010525B180200F4910310860FA
:100A900003E080200C491431086040200A491031DD
:100AA0000860012000F012F8402007491431086066
:100AB000012000F00BF85B10601CC4B2082CE0DBD6
:100AC000012000F003F830BD000C014007E00C21CC
:100AD00001E04A1E91B20029FBDC421E90B20028C0
:100AE000F5DC704710B500BF08210548FFF7C4FCCE
:100AF0000028F9D12220FFF719FCFFF793FB10BD66
:100B00000008014010B50446FFF75EFF2046FFF7DE
:100B1000A9FFFFF77FFF10BD70B506460D46FFF732
:100B200053FF3046FFF79EFF002404E0285DFFF7E7
:100B300099FF601CC4B2102CF8DBFFF76BFF70BD8F
:100B4000600B00080000002070000000D4060008C0
:100B5000D00B00087000002000040000E40600082C
:100B60003F065B4F666D7D077F6F777C395E7971DD
:100B70003D760E38375C73503E6E40003F3F3F3F3E
:100B80003F3F3F3F00000000000000003F3F3F3F6D
:100B90003F3F3F3F00000000000000000000000059
:100BA0000000000000000000000000000000000045
:100BB00000000000000000000000000000A24A0445
:100BC00000000000000000000102030406070809FD
:04000005080000ED02
:00000001FF
