:020000040800F2
:100000007811002001010008130D00080B0D0008F5
:100010000F0D0008490100084D0F00080000000006
:10002000000000000000000000000000A90D000812
:100030005506000800000000150D00087D0E0008A0
:100040001B0100081B0100081B0100081B01000820
:100050001B0100081B0100081B0100081B01000810
:100060001B0100081B0100081B0100081B01000800
:100070001B0100081B0100081B0100081B010008F0
:100080001B0100081B0100081B0100081B010008E0
:100090001B0100081B0100081B0100081B010008D0
:1000A0001B0100081B0100081B0100081B010008C0
:1000B0001B0100081B0100081B0100081B010008B0
:1000C0001B0100081B0100081B0100081B010008A0
:1000D0001B0100081B0100081B0100081B01000890
:1000E0001B0100081B0100081B010008DFF80CD0F1
:1000F00000F018F800480047351400087811002077
:100100000648804706480047FEE7FEE7FEE7FEE7B1
:10011000FEE7FEE7FEE7FEE7FEE7FEE7ED0E00087E
:10012000ED000008064C074D06E0E06840F00103D2
:1001300094E8070098471034AC42F6D3FFF7DAFF93
:10014000B01F0008D01F000800BFFEE710B504462E
:10015000392000F063FAE0B200F076FAC4F3072029
:1001600000F072FAC4F3074000F06EFA200E00F0BF
:100170006BFA1021024800F0C6FD00F0E9FE10BD48
:10018000000801402DE9F04107460E4614463C2088
:1001900000F044FAF0B200F057FA301200F054FACE
:1001A0001021104800F0AFFD0CB10020208018E0B5
:1001B00000F0CEFE05461E2D10D1384600F01CF989
:1001C00005463D2000F02AFA1021064800F09BFD6C
:1001D0002F4434B120882844208002E02846BDE81E
:1001E000F081E5E70008014070B5054600260CE007
:1001F0002946362000F07CF80446142C00D106E095
:10020000012001F059F9701CC6B20A2EF0DB00BFC4
:10021000204670BD70B5064616B1304600F090F825
:1002200000250BE0342000F079F80446142C00D1AE
:1002300006E0012001F040F9681CC5B20A2DF1DB8F
:1002400000BF204670BD10B50446204600F078F887
:1002500020785C2802D020782F2803D10021642048
:1002600000F0E6F8322000F059F810BD10B5682013
:1002700000F01EF810BD00002DE9F04100F04AF931
:10028000044600F047F9054600F044F9064600F040
:1002900041F907461021054800F035FD44EA0520E4
:1002A00040EA064040EA0760BDE8F08100080140EE
:1002B00010B504460C2000F0B1F9204600F0C4F956
:1002C000FFF7DAFF10BD000070B504460A2000F009
:1002D000A5F9204600F0B8F900F01CF905461021F8
:1002E000024800F010FD284670BD000000080140E3
:1002F00070B505460C46284600F090F9204600F0FF
:10030000A3F91021044800F0FEFC012001F04CFC90
:1003100000F01EFE70BD00000008014010B504464C
:10032000204600F07BF91021044800F0ECFC01208D
:1003300001F03AFC00F00CFE10BD00000008014086
:100340002DE9F0470646012000F068F900F0E2F8D8
:10035000432835DA2B20FFF7B7FF8046B8F1100F9E
:100360002EDA002729E02F2000F058F9002000F0B5
:100370006BF93220FFF7D2FF0446142C1BD1CF209B
:10038000FFF7A2FF0446ACB14C20FFF791FF00EB52
:10039000042949464C2000F04BF85020FFF788FF15
:1003A00000EB04294946502000F042F8002170205B
:1003B00000F03EF803E0781CC7B20A2FD3DB00BF81
:1003C0002F2000F02BF93578284600F03DF909E0A0
:1003D000761C35785C2D01D02F2D00D100252846C4
:1003E00000F032F9002DF3D11021024800F08BFC0F
:1003F000BDE8F0870008014070B504462D2000F0EC
:100400000DF900F087F80646054646B100BF207892
:1004100000F01AF9641C701EC0B20600F7D110215A
:10042000024800F070FC284670BD00000008014042
:1004300070B505460C460D2000F0F0F8284600F097
:1004400003F9E0B200F000F9C4F3072000F0FCF873
:10045000C4F3074000F0F8F8200E00F0F5F8102182
:10046000014800F050FC70BD0008014010B530207C
:1004700000F0D4F801F06EFD04461021024800F0AF
:1004800042FC204610BD00000008014010B531209C
:1004900000F0C4F801F05EFD04461021024800F0AF
:1004A00032FC204610BD00000008014010B500F0ED
:1004B00059F8062000F0B2F8652000F0C5F800F009
:1004C00029F804461021114800F01DFC9A2C04D094
:1004D00001200F490870FA2010BD152000F09EF889
:1004E000062000F0B1F8012000F0E6FF00F012F85D
:1004F00004461021054800F006FC512C01D11420BF
:10050000EAE7022002490870FA20E5E70008014006
:100510004E00002010B5002000F002F810BD0000D1
:1005200070B5054600BF02210D4800F011FC0028FF
:10053000F9D029460A4800F017FC00BF01210848FD
:1005400000F006FC0028F9D00A2401E0601EC4B2C5
:10055000002CFBDC024800F004FCC0B270BD0000BF
:100560000030014000B587B0012141F2040000F0E5
:10057000D3FB0121042000F0CFFBE020ADF8040004
:1005800003208DF8060018208DF8070001A92148E6
:1005900000F025FB1020ADF804008DF807000320C3
:1005A0008DF8060001A91B4800F019FB0820ADF8E2
:1005B000040004208DF8070001A9164800F00FFB85
:1005C0001021144800F09FFB0020ADF808004FF404
:1005D0008270ADF80A000020ADF80C00ADF80E00F6
:1005E000ADF810004FF40070ADF812001820ADF80F
:1005F00014000020ADF816000720ADF8180002A97D
:10060000054800F0B3FB0121034800F095FB07B05B
:1006100000BD0000000801400030014010B5044654
:100620001021084800F06FFB012001F0BDFA1021F5
:10063000044800F066FB012001F0B6FA2046FFF7FF
:100640006FFF10BD0008014010B504462046FFF7BB
:1006500067FF10BD704700000346062106221248BE
:10066000018812480288A3B1012B1AD132B9A1F531
:100670006E40EE3800D170470120FCE739B9A2F591
:100680006E40EE3801D10120F5E70020F3E7AB2002
:10069000F1E709B90020EEE70AB90120EBE7AB204A
:1006A000E9E70020E7E7000000A0000800A4000838
:1006B00010B504240B4800F00BFA0446042C01D0BA
:1006C000204610BD0021074800F044FA0446042CDF
:1006D00001D02046F5E7044800F0FAF90446204628
:1006E000EFE7000000A0000800A400082DE9F04793
:1006F0004FF0060A062600250027A8464FF0FF39CE
:100700007448B0F800A0744806885FEA0A0074D004
:10071000A0F56E40EE382AD0A0F5885011386DD182
:1007200046B96C4800F0D4F90446042C1ED020468B
:10073000BDE8F087A6F56E40EE3810D1654800F0B0
:10074000C7F90446042C01D02046F1E70021624895
:1007500000F000FA0446042C08D02046E8E7FFF732
:10076000A7FF0446042C01D02046E1E7AEE07EBBA3
:10077000002522E05748C088584931F815108842B2
:1007800001D10FFA85F94D4515D0544931F81500BE
:10079000534900F021F98046B8F1010F0BD04F49C1
:1007A00031F815004E49098800F048F90746042F32
:1007B00001D03846BCE7681C85B2042DDADB002185
:1007C000444800F0C7F90446042C02D02046AFE7A5
:1007D00007E0414800F07CF90446042C1FD0204675
:1007E000A6E7A6F57F40FF3812D13B4800F070F92C
:1007F0000446042C03D020469AE711E05EE0002175
:10080000344800F0A7F90446042C08D020468FE7AE
:10081000FFF74EFF0446042C01D0204688E755E040
:1008200036B9FFF745FF0446042C46D020467FE743
:10083000A6F57F40FF3807D1274800F049F9044664
:10084000042C3AD0204673E7002523E02248801D7F
:100850000088224931F81510884201D10FFA85F934
:100860004D4515D01D4931F815001D4900F0B4F86B
:100870008046B8F1010F0BD0184931F8150018491E
:10088000098800F0DBF80746042F01D038464FE70F
:10089000681C85B2042DD9DB00210F4800F05AF9FD
:1008A0000446042C01D0204642E70A4800F010F923
:1008B0000446042C01D020463AE707E0FFF7F8FE93
:1008C0000446042C01D0204632E700BF00BF0420BC
:1008D0002EE7000000A0000800A40008000000208F
:1008E000740000202DE9F84F074689460425DFF8FB
:1008F000D0A0344800904FF00008002400264FF0AC
:10090000000B0020FFF7A8FE8046B8F1010F04D1CC
:10091000DFF8B4A02D4800900AE0B8F1000F04D130
:10092000DFF8A8A02848009002E0AB20BDE8F88FCF
:100930004EF6EE61504600F00DF90546042D01D04B
:100940002846F3E74946384600F078F80646042E74
:1009500001D03046EAE700241CE01D4830F81400BE
:10096000B84215D01A4931F814001A4900F034F889
:100970008346BBF1010F0BD0154931F8140015491E
:10098000098800F05BF80646042E01D03046CDE71A
:10099000601C84B2042CE0DB009800F099F8054656
:1009A000042D01D02846C1E70021504600F0D2F8BE
:1009B0000546042D01D02846B8E72846B6E70000D2
:1009C000FF0301080000010800A0000800A40008BF
:1009D00000000020740000202DE9F04706460F4675
:1009E000002445F255584FF00109124DAA46002047
:1009F000FFF732FE0446AB2C01D1BDE8F0870E486C
:100A000000EB842A601C0C49891E01EB80250AE05A
:100A1000B5F80080B04505D135F8020C38804FF0AC
:100A2000000904E02D1F0AF102008542F0D800BF42
:100A30004846E2E70000010800A000082DE9F04761
:100A40000646884604270025154CDFF858900120FB
:100A5000FFF702FE0546AB2D01D1BDE8F087124835
:100A600000EB8524681C1049891E01EB802913E0E6
:100A70002068401C0FD14146204600F06BF8074625
:100A8000042F01D03846E8E73146A01C00F062F898
:100A900007463846E1E7241D4C45E9D38020DCE7D2
:100AA00000000108FF07010800A0000870B5054616
:100AB0000E46002431462846FFF7C0FF0446802C2E
:100AC00004D131462846FFF70DFF0446204670BD8D
:100AD00030B5044604254FF4302000F067F8054691
:100AE000042D17D10C48006940F002000A49086142
:100AF00008464461006940F0400008614FF430202E
:100B000000F054F805460448006941F6FD710840BC
:100B100001490861284630BD0020024004200C49EC
:100B2000C96801F00101012901D101200EE0084945
:100B3000C96811F0040F01D0022007E00449C96818
:100B400011F0100F01D0032000E0042070470000D6
:100B50000020024070B504460D460426F00200F065
:100B600025F80646042E11D10948006940F001001D
:100B7000074908612580F00200F018F8064604488D
:100B8000006941F6FE71084001490861304670BDB8
:100B9000002002400248034948600348486070470B
:100BA0002301674500200240AB89EFCD00B5024626
:100BB0000423FFF7B3FF034603E0FFF7AFFF03464D
:100BC000521E012B01D1002AF7D102B90523184684
:100BD00000BD10B5FFF7DEFFFFF788FD10BD2DE962
:100BE000F0410246002500260020002300240027B3
:100BF00091F803C00CF00F0591F803C01CF0100F22
:100C000003D091F802C04CEA0505B1F800C01CF011
:100C1000FF0F31D0146800202BE04FF0010C0CFACC
:100C200000F3B1F800C00CEA03069E4220D1830015
:100C30004FF00F0C0CFA03F7BC4305FA03FC4CEA27
:100C4000040491F803C0BCF1280F06D14FF0010C49
:100C50000CFA00FCC2F814C00AE091F803C0BCF121
:100C6000480F05D14FF0010C0CFA00FCC2F810C07F
:100C7000401C0828D1D31460B1F800C0BCF1FF0FAC
:100C800034DD546800202EE000F1080C4FF001081C
:100C900008FA0CF3B1F800C00CEA03069E4221D119
:100CA00083004FF00F0C0CFA03F7BC4305FA03FC6A
:100CB0004CEA040491F803C0BCF1280F05D100F1FF
:100CC000080C08FA0CF8C2F8148091F803C0BCF1C3
:100CD000480F07D100F1080C4FF0010808FA0CF892
:100CE000C2F81080401C0828CED35460BDE8F081C3
:100CF0000246002093680B4201D0012000E0002052
:100D00007047416170470161704700BFFEE700BF57
:100D1000FEE770477047000029B1064A9269024316
:100D2000044B9A6104E0034A92698243014B9A6141
:100D3000704700000010024021B1028842F04002DA
:100D4000028004E002884FF6BF731A4002807047A9
:100D50000246002013890B4201D0012000E0002050
:100D600070470146888970478181704710B500221D
:100D7000028802F441520B884C8823438C88234319
:100D8000CC8823430C8923434C8923438C892343F8
:100D9000CC8923431A430280838B4FF2FF74234094
:100DA00083830B8A038210BD704710B500F002F8F0
:100DB00010BD0000002100202E4A126842F480324B
:100DC0002C4B1A6000BF2B4A126802F40030491CF9
:100DD00010B9B1F5A06FF6D1264A126812F4003F9F
:100DE00001D0012000E00020012842D1224A1268EF
:100DF00042F01002204B1A601A46126822F00302D9
:100E00001A601A46126842F002021A60194A5268C1
:100E1000184B5A601A4652685A601A46526842F491
:100E200080625A601A46526822F47C125A601A464E
:100E3000526842F4E8125A601A46126842F0807210
:100E40001A6000BF0B4A126812F0007FFAD0094AFC
:100E5000526822F00302074B5A601A46526842F069
:100E600002025A6000BF034A526802F00C02082ACC
:100E7000F9D17047001002400020024010B516481A
:100E80000068401C1449086001201449087000F0F3
:100E90005DFA114800680A21B0FBF1F201FB120073
:100EA00010B901200E4908700B4800686421B0FB9E
:100EB000F1F201FB120010B901200A49087006483E
:100EC00000684FF47A71B0FBF1F201FB120010B927
:100ED00001200549087010BD5C0000204F00002073
:100EE00050000020510000205200002010B513488F
:100EF000006840F001001149086008464068104948
:100F000008400E494860084600680E4908400B49F1
:100F100008600846006820F48020086008464068A1
:100F200020F4FE0048604FF41F008860FFF73DFF8B
:100F30004FF000600449086010BD0000001002403E
:100F40000000FFF8FFFFF6FE08ED00E000BFFEE73F
:100F500010B500F0FFFF10BD02E008C8121F08C165
:100F6000002AFAD170477047002001E001C1121F2A
:100F7000002AFBD17047000008B501210820FFF7C7
:100F8000CBFE4FF40040ADF8000014208DF80300B4
:100F900003208DF8020069460448FFF720FE4FF455
:100FA000004002491031086008BD0000000C0140FB
:100FB00070B50024002512E000F08CFA42F22830CF
:100FC00000F0F2FD00F06EFB0446012C05D100F0AC
:100FD00043FB0446012C00D170BD681CC5B20A2D2C
:100FE000EADB0020F8E7000010B50024FFF7F1FD70
:100FF000002000F036F80446104884420AD102204E
:1010000000F022F80E490880032000F01DF80D4979
:10101000088012E000200A4908800A490880084830
:101020000188022000F037F806480188032000F00C
:1010300032F80249002000F038F810BD4D3C2E1F58
:10104000080000200A00002038B504460020009067
:1010500004F52A4188B26946FFF7BEFCBDF80000DE
:1010600038BD38B5044600250020009004F52A411B
:1010700088B26946FFF7B0FCBDF800502D0404F5B6
:101080002A41491C88B26946FFF7A6FCBDF800005A
:101090000544284638BD70B504460D4604F52A417E
:1010A00088B22946FFF702FD70BD70B504460D46B3
:1010B000290C04F52A4290B2FFF7F8FCA9B204F516
:1010C0002A42521C90B2FFF7F1FC70BDF8B5002522
:1010D0000027002000900026002417E01CA0FFF746
:1010E000B2F80546142D00D112E0422D09D118A006
:1010F000FFF790F80546142D06D115A0FFF7A3F8C9
:1011000006E0642000F0D8F9601CC4B20A2CE5DBCC
:1011100000BF0A2C01D10020F8BD0A2C15DAFFF718
:10112000A5F80646012E00D100263046FFF70EF83E
:1011300000F046FD07466A4639460848FFF722F8A0
:101140000120FFF751F80120E6E70020E4E7000066
:101150002F4453323433312E54585400FD000020B4
:1011600070B500253C480078012865D100203A4937
:1011700008703A4908703A48007800285CD139482C
:101180000078022858D1FFF713FF0546012D33D10F
:1011900000F0AAFA0546012D29D1FFF797FF054671
:1011A000012D0DD130480088401C2F490880084689
:1011B00001880220FFF76FFF0120284908701FE017
:1011C000F5B92A480078401E28490870002408E034
:1011D00000202749254A127801EBC2010855601CFE
:1011E00084B2082CF4DB02201C49087008E03DB9E9
:1011F00002201A49087003E015B902201749087047
:10120000002404E000201B490855601C84B2082C0F
:10121000F8DB002404E0002017490855601C84B264
:10122000852CF8DB002404E0002014490855601CDC
:1012300084B2B4F5FA7FF7DB11480078012802D1B7
:1012400000200F4908700F480078012802D10020C3
:101250000C49087070BD00004A00002041000020C9
:101260004E0000204D00002008000020400000201B
:10127000F10200203800002078000020FD0000204E
:101280004B0000204C00002008B501211020FFF782
:1012900043FD4FF46040ADF8000004208DF80300DA
:1012A00069460248FFF79BFC08BD000000100140A2
:1012B0001F48806810F4005F0CD11E480088401C55
:1012C0001C49088008460088052806D101201A49D3
:1012D000087002E00020174908801548806810F463
:1012E000804F0CD115480088401C144908800846DE
:1012F0000088052806D101201149087002E000206D
:101300000E4908800A48806810F4004F0CD10D483F
:101310000088401C0B49088008460088052806D133
:1013200001200949087002E0002006490880704742
:1013300000100140440000204A0000204600002028
:101340004B000020480000204C0000202748007877
:1013500001281BD10003264908604000091F0860CE
:1013600024480088401C2349088008460088B0F5BE
:101370007A7F39D1002008801C4908704FF48050D2
:101380001B49091F0860400008602DE017480078DD
:1013900002281CD1C0021649091F08604000091D1F
:1013A000086014480088401C1249088008460088DC
:1013B000B0F57A7F18D1002008800C4908704FF4EE
:1013C00080500B49091F0860400008600CE0074886
:1013D000007848B90020074908804FF4805004493C
:1013E000091F0860400008607047000041000020AD
:1013F000140C01404200002008B501210820FFF72D
:101400008BFC4FF44050ADF8000014208DF8030021
:1014100003208DF8020069460548FFF7E0FB4FF412
:1014200080500349103108604000086008BD00008A
:10143000000C014000F0EAFAFFF7D6FDFFF724FFA9
:1014400000F018FBFFF7D8FF642000F035F8FFF735
:101450002DF8FFF791FD25E013480078012802D10F
:1014600000201149087011480078012806D1002099
:101470000E490870FFF71CFFFFF772FE0C4800785A
:10148000012806D100200A49087000F073F900F025
:10149000F1FC08480078012804D1002005490870B3
:1014A00000F046FDD8E700004F000020500000206B
:1014B000510000205200002008E042F2107101E0CB
:1014C0004A1E91B20029FBDC421E90B20028F4DCD7
:1014D0007047000070B500252E48006820F070406D
:1014E0002C4908600846006840F0E04008604FF46E
:1014F000004028491031086040F2262000F054FBDB
:101500002448006820F070402249086008460068BE
:1015100040F080400860D62407E0601E84B20120BD
:1015200000F042FB0CB9002070BD1A48001D006895
:1015300010F4004FF1D1CC2C2ADAAB2C28DD40F28C
:10154000822407E0601E84B2012000F02DFB0CB95C
:101550000020E9E70F48001D006810F4004FF1D0AB
:10156000B4F5EB7F14DD40F25720844210DA0024FA
:10157000012000F019FB0748006820F07040054981
:1015800008600846006840F0804008600120CBE712
:101590002846C9E7040C01402DE9F0410546002426
:1015A000002645E04FF400402A49086029481038D9
:1015B000006820F07040274910390860084600682C
:1015C00040F0E0400860022000F0EEFA4FF40040E6
:1015D000204908601F481038006820F070401D49FD
:1015E000103908600846006840F0804008600A2012
:1015F00000F0DAFA641017480C38006810F4004F55
:1016000001D044F08004282000F0CEFA42F2107796
:1016100006E0781E87B200BF17B90020BDE8F08150
:101620000C480C38006810F4004FF2D0701CC6B2A1
:10163000082EB7DB07481038006820F070400549D5
:10164000103908600846006840F0804008602C703F
:101650000120E3E7140C014070B50026F02000F0F3
:101660008BF9002000F088F9002000F085F90025B2
:1016700012E00B494819FFF78FFF064656B90024C0
:1016800004E0002006490855601CC4B2852CF8DB34
:10169000002070BD681CC5B2852DEADB0120F8E78B
:1016A0007800002070B50026FFF714FF332000F00B
:1016B00063F9002512E00B494819FFF76DFF064654
:1016C00056B9002404E0002006490855601CC4B245
:1016D000082CF8DB002070BD681CC5B2082DEADBC1
:1016E0000120F8E73800002010B5002214E00021A6
:1016F0000AE01D48405C1D4B03EBC2035B5C984253
:1017000000D003E0481CC1B20829F2DB00BF082961
:1017100000D105E0501CC2B2154800788242E6DBD9
:1017200000BF1348007882421BD111480078C828B6
:1017300002D1C7200E4B1870002109E00A48435C13
:101740000A480B4C247800EBC4004354481CC1B237
:101750000829F3DB06480078401C054B187001206F
:1017600010BD0020FCE7000038000020F10200203E
:101770004000002000B57848007800287ED17748E6
:1017800000780228FAD1764800884FF47A7190FBED
:10179000F1F07449085C74490870714800884FF48E
:1017A0007A7190FBF1F201FB1200642190FBF1F0E1
:1017B0006C49085C6C49487069480088642190FB5A
:1017C000F1F201FB12000A2190FBF1F06549085C7F
:1017D00065498870624800880A2190FBF1F201FB9C
:1017E00012006049085C6049C870084600785D498D
:1017F0000978884217D15B48C07E5B49087008466B
:1018000040785849097888420DD15648C07E5649DB
:1018100048700846807853490978884203D1514876
:10182000C07E51498870514800884FF47A7190FB0E
:10183000F1F04C49085C4C4908714C4800884FF461
:101840007A7190FBF1F201FB1200642190FBF1F040
:101850004449085C4449487144480088642190FB2D
:10186000F1F201FB12000A2190FBF1F03D49085C06
:101870003D4988713D4800880A2100E026E090FB40
:10188000F1F201FB12003749085C3749C87108467C
:10189000007934490978884252D13248C07E3249B1
:1018A0000871084640792F490978884248D12D4867
:1018B000C07E2D494871084680792A4909788842B6
:1018C0003ED12848C07E2849887139E022480078F6
:1018D000C8B12448807B244908702248C07D4870E4
:1018E0002048C07D88701F48C07EC8701D48C07EDB
:1018F00008711C48C07E48711A48C07E887119481A
:10190000C07EC8711CE015480078022818DA154816
:10191000007E154908701348407948701148C07A14
:1019200088701048C07EC8700E48007D08710D4850
:10193000407D48710B48C07E88710A48C07EC871DE
:10194000402000F017FB0849C02000F01DFB882054
:1019500000F010FB00BD00004E0000204D000020F4
:10196000080000200C000020280000200A000020B1
:1019700000B5FFF7FFFE00BD70B504464FF4004010
:101980002149086020480C38006820F070401E494A
:101990000C3908600846006840F0E0400860002507
:1019A00021E04FF400401849091D0860052000F0AF
:1019B000FBF814F0010F04D04FF400401249086006
:1019C00004E04FF400401049091D08603C2000F07D
:1019D000EBF84FF400400C490860052000F0E4F8F3
:1019E0006410681CC5B2082DDBDB07480C380068A2
:1019F00020F0704004490C3908600846006840F047
:101A00008040086070BD0000100C014030B51648E1
:101A100000684FF47A72B0FBF2F1B1F1807F01D32C
:101A200001201DE021F07F40401E4FF0E022506178
:101A300050170F22002807DA13071D0E0B4B00F07A
:101A40000F04241F1D5503E013071C0E084B1C54E4
:101A500000BF00204FF0E0229061072010610020BD
:101A600008B100BFFEE730BD6000002018ED00E0C7
:101A700000E400E008B501210820FFF74DF9C0207F
:101A8000ADF8000014208DF8030002208DF802004C
:101A900069460348FFF7A3F8FFF76AFF08BD000097
:101AA000000C014000B51148006820F070400F495B
:101AB00008600846006840F0C040086080200B497C
:101AC0001031086040200860012000F06DF880208F
:101AD000064914310860012000F066F840200349EF
:101AE00014310860012000F05FF800BD000C0140D7
:101AF00000B51248006820F07040104908600846A0
:101B0000006840F0C040086080200C491431086033
:101B10004020091F0860012000F046F88020074996
:101B200010310860012000F03FF8402003491431D3
:101B30000860012000F038F800BD0000000C0140F2
:101B400030B503461748006820F07040154908601A
:101B50000846006840F0C040086000241CE003F024
:101B6000010525B180200F491031086003E0802075
:101B70000C491431086040200A49103108600120E6
:101B800000F012F84020074914310860012000F0ED
:101B90000BF85B10601CC4B2082CE0DB012000F0E5
:101BA00003F830BD000C014007E00A2101E04A1EA5
:101BB00091B20029FBDC421E90B20028F5DC704790
:101BC00018B500200022009249240346401CA64A72
:101BD000D45444240346401CD4543A240346401CA5
:101BE000D45409240346401CD454002140E09F4AA9
:101BF000525C12118DF800209C4A525C02F00F02D8
:101C00008DF801209DF800200A2A09DA9DF80020AD
:101C10003032D4B20246431C98B2934B9C5408E035
:101C20009DF800203732D4B20246431C98B28E4B46
:101C30009C549DF801200A2A09DA9DF801203032CF
:101C4000D4B20246431C98B2874B9C5408E09DF8DE
:101C500001203732D4B20246431C98B2824B9C54C6
:101C600020240246431C98B27F4B9C544A1C91B2DC
:101C70000829BCDB0D240246431C98B27A4B9C54C5
:101C80000A240246431C98B2774B9C544D240246CA
:101C9000431C98B2744B9C5445240246431C98B292
:101CA000714B9C544D240246431C98B26E4B9C547D
:101CB00030240246431C98B26B4B9C543A24024693
:101CC000431C98B2684B9C5409240246431C98B2AA
:101CD000654B9C54002140E0654A525C12118DF81E
:101CE0000020634A525C02F00F028DF801209DF83B
:101CF00000200A2A09DA9DF800203032D4B20246C8
:101D0000431C98B2584B9C5408E09DF80020373291
:101D1000D4B20246431C98B2534B9C549DF8012008
:101D20000A2A09DA9DF801203032D4B20246431C57
:101D300098B24D4B9C5408E09DF801203732D4B244
:101D40000246431C98B2484B9C5420240246431C34
:101D500098B2454B9C544A1C91B22029BCDB0D24FF
:101D60000246431C98B2404B9C540A240246431C32
:101D700098B23D4B9C544D240246431C98B23A4BBA
:101D80009C5445240246431C98B2374B9C544D2426
:101D90000246431C98B2344B9C5431240246431CE7
:101DA00098B2314B9C543A240246431C98B22E4BB5
:101DB0009C5409240246431C98B22B4B9C5400218E
:101DC00043E02B4B01F120029A5C12118DF80020A8
:101DD00001F120029A5C02F00F028DF801209DF8BB
:101DE00000200A2A09DA9DF800203032D4B20246D7
:101DF000431C98B21C4B9C5408E09DF800203732DD
:101E0000D4B20246431C98B2174B9C549DF8012053
:101E10000A2A09DA9DF801203032D4B20246431C66
:101E200098B2114B9C5408E09DF801203732D4B28F
:101E30000246431C98B20C4B9C5420240246431C7F
:101E400098B2094B9C544A1C91B22029B9DB0D244D
:101E50000246431C98B2044B9C540A240246431C7D
:101E600098B2014B9C5418BDFD00002038000020A2
:101E70007800002070B5002400262748007800284C
:101E800048D126480078012838D1FEF7FFFA0446E9
:101E9000142C3FD10024022020490870002517E0AF
:101EA0001FA0FEF7D0F90446142C00D112E0422CFA
:101EB00009D11BA0FEF7AEF90446142C06D118A0D8
:101EC000FEF7C1F906E06420FFF7F6FA681CC5B218
:101ED0000A2DE5DB00BF0A2D1CDAFEF7C7F906461E
:101EE000EE20B6FBF0F01149088008460188022078
:101EF000FFF7D1F80020FEF777F90BE007480078EC
:101F000040B9FEF7B3FA0446142C03D10024012093
:101F10000249087070BD00004E0000204D000020F6
:101F20002F4453323433312E5458540008000020CB
:101F300010B5002406480078022807D1FEF796FA6B
:101F40000446822C02D100200149087010BD000017
:101F50004D00002010B500BF08210548FEF7C8FE5F
:101F60000028F9D12220FEF759FBFEF7D3FA10BD65
:101F70000008014010B50446FFF794FD2046FFF726
:101F8000DFFDFFF7B5FD10BD70B506460D46FFF746
:101F900089FD3046FFF7D4FD002404E0285DFFF7FB
:101FA000CFFD601CC4B2102CF8DBFFF7A1FD70BDA3
:101FB000D01F00080000002078000000580F000823
:101FC000482000087800002000110000680F000879
:101FD00000AA01AA02AA03AA000000003F065B4F64
:101FE000666D7D077F6F777C395E79713D760E383F
:101FF000375C73503E6E40000000003F0000003F21
:1020000000000000000000000000000000000000D0
:1020100000000000000000000000000000000000C0
:1020200000000000000000000000000000000000B0
:1020300000A24A04000000000000000001020304A6
:0820400006070809000000007A
:04000005080000ED02
:00000001FF
