:020000040800F2
:100000002812002001010008C30F0008BB0F0008E0
:10001000BF0F0008490100088B1500080000000010
:10002000000000000000000000000000D5110008E2
:1000300007090008000000004D100008A912000880
:100040001B0100081B0100081B0100081B01000820
:100050001B0100081B0100081B0100081B01000810
:100060001B0100081B0100081B0100081B01000800
:100070001B0100081B010008F10600081B01000815
:100080001B0100081B0100081B0100081B010008E0
:100090001B0100081B0100081B0100081B010008D0
:1000A0001B0100081B0100081B0100081B010008C0
:1000B0001B0100081B0100081B0100081B010008B0
:1000C0001B0100081B0100081B0100081B010008A0
:1000D0001B010008B51300081B0100081B010008E4
:1000E0001B0100081B0100081B010008DFF80CD0F1
:1000F00000F018F800480047091E000828120020E8
:100100000648804706480047FEE7FEE7FEE7FEE7B1
:10011000FEE7FEE7FEE7FEE7FEE7FEE75513000811
:10012000ED000008064C074D06E0E06840F00103D2
:1001300094E8070098471034AC42F6D3FFF7DAFF93
:10014000DC2C0008FC2C000800BFFEE710B50446BC
:10015000392000F0B1FAE0B200F0C4FAC4F307208D
:1001600000F0C0FAC4F3074000F0BCFA200E00F023
:10017000B9FA1021024800F01EFF01F008FA10BD84
:10018000000801402DE9F04107460E4614463A208A
:1001900000F092FAF0B200F0A5FA301200F0A2FAE4
:1001A0001021104800F007FF0CB10020208018E05B
:1001B00001F0EDF905461D2D10D1384600F0AAF8E2
:1001C00005463B2000F078FA1021064800F0F3FEC7
:1001D0002F4434B120882844208002E02846BDE81E
:1001E000F081E5E7000801402DE9F04107460E46A1
:1001F00014463C2000F060FAF0B200F073FA3012BE
:1002000000F070FA1021104800F0D5FE0CB100206B
:10021000208018E001F0BBF905461E2D10D13846AC
:1002200000F038F905463D2000F046FA1021064856
:1002300000F0C1FE2F4434B120882844208002E021
:100240002846BDE8F081E5E70008014070B50546A5
:1002500000260CE02946362000F098F80446142CBD
:1002600000D106E0012001F015FE701CC6B20A2E76
:10027000F0DB00BF204670BD70B5064616B13046B3
:1002800000F0ACF800250BE0342000F095F80446AF
:10029000142C00D106E0012001F0FCFD681CC5B261
:1002A0000A2DF1DB00BF204670BD10B50446204684
:1002B00000F094F820785C2802D020782F2803D111
:1002C0000021642000F002F9322000F075F810BD22
:1002D00010B5682000F03AF810BD00002DE9F0419B
:1002E00000F066F9044600F063F9054600F060F995
:1002F000064600F05DF907461021054800F05BFE58
:1003000044EA052040EA064040EA0760BDE8F08183
:100310000008014070B50446272000F0CDF900F038
:1003200047F90646054646B100BF00F041F9207086
:10033000641C701EC0B20600F7D11021024800F004
:100340003AFE284670BD00000008014010B5044682
:100350000C2000F0B1F9204600F0C4F9FFF7BEFF11
:1003600010BD000070B504460A2000F0A5F9204633
:1003700000F0B8F900F01CF905461021024800F021
:100380001AFE284670BD00000008014070B5054601
:100390000C46284600F090F9204600F0A3F9102101
:1003A000044800F008FE012002F094FA01F0EFF892
:1003B00070BD00000008014010B50446204600F062
:1003C0007BF91021044800F0F6FD012002F082FACA
:1003D00001F0DDF810BD0000000801402DE9F047F4
:1003E0000646012000F068F900F0E2F8432835DA0B
:1003F0002B20FFF7B7FF8046B8F1100F2EDA002749
:1004000029E02F2000F058F9002000F06BF932208D
:10041000FFF7D2FF0446142C1BD1CF20FFF7A2FF19
:100420000446ACB14C20FFF791FF00EB042949468C
:100430004C2000F04BF85020FFF788FF00EB042918
:100440004946502000F042F80021702000F03EF8AC
:1004500003E0781CC7B20A2FD3DB00BF2F2000F0C7
:100460002BF93578284600F03DF909E0761C3578FF
:100470005C2D01D02F2D00D10025284600F032F947
:10048000002DF3D11021024800F095FDBDE8F08762
:100490000008014070B504462D2000F00DF900F071
:1004A00087F80646054646B100BF207800F01AF9E5
:1004B000641C701EC0B20600F7D11021024800F083
:1004C0007AFD284670BD00000008014070B5054661
:1004D0000C460D2000F0F0F8284600F003F9E0B2D9
:1004E00000F000F9C4F3072000F0FCF8C4F3074063
:1004F00000F0F8F8200E00F0F5F81021014800F0A7
:100500005AFD70BD0008014010B5302000F0D4F84D
:1005100002F0B6FB04461021024800F04CFD2046D4
:1005200010BD00000008014010B5312000F0C4F8F3
:1005300002F0A6FB04461021024800F03CFD2046D4
:1005400010BD00000008014010B500F059F8062069
:1005500000F0B2F8652000F0C5F800F029F8044674
:100560001021114800F027FD9A2C04D001200F49DA
:100570000870FA2010BD152000F09EF8062000F04B
:10058000B1F8012001F086FC00F012F804461021B9
:10059000054800F010FD512C01D11420EAE702209B
:1005A00002490870FA20E5E7000801404E000020EB
:1005B00010B5002000F002F810BD000070B505462F
:1005C00000BF02210D4800F0D9FD0028F9D02946CE
:1005D0000A4800F0DFFD00BF0121084800F0CEFD11
:1005E0000028F9D00A2401E0601EC4B2002CFBDC14
:1005F000024800F0CCFDC0B270BD000000300140E8
:1006000000B587B0012141F2040000F031FD012165
:10061000042000F02DFDE020ADF8040003208DF84B
:10062000060018208DF8070001A9214800F02FFCD2
:100630001020ADF804008DF8070003208DF80600A7
:1006400001A91B4800F023FC0820ADF80400042099
:100650008DF8070001A9164800F019FC1021144874
:1006600000F0A9FC0020ADF808004FF48270ADF84E
:100670000A000020ADF80C00ADF80E00ADF8100037
:100680004FF40070ADF812001820ADF814000020EF
:10069000ADF816000720ADF8180002A9054800F0D3
:1006A0007BFD0121034800F05DFD07B000BD0000A7
:1006B000000801400030014010B5044610210848F0
:1006C00000F079FC012002F005F91021044800F047
:1006D00070FC012002F0FEF82046FFF76FFF10BD0E
:1006E0000008014010B504462046FFF767FF10BD23
:1006F00010B54FF4005000F0C7F8012802D14003B4
:1007000000F002F810BD000010F0805F02D0034935
:10071000086001E00249486070470000040402409C
:100720000000024021B1026842F00102026004E0D0
:1007300002684FF6FE731A400260704701684FF678
:10074000FE72114001600021016041608160C16062
:100750004B49884208D14A490839496841F00F019C
:10076000474A083A51608AE045491431884208D125
:1007700043490839496841F0F001414A083A51605B
:100780007DE03F492831884208D13D490839496810
:1007900041F470613A4A083A516070E038493C319E
:1007A000884208D136490839496841F47041344AD1
:1007B000083A516063E032495031884208D13049EB
:1007C0000839496841F470212D4A083A516056E0D1
:1007D0002B496431884208D129490839496841F4D4
:1007E0007001274A083A516049E02549783188422A
:1007F00008D123490839496841F07061204A083A14
:1008000051603CE01F49884206D1011F096841F050
:100810000F01021F116032E01A491431884208D1D9
:100820001849091F096841F0F001164A121F1160AA
:1008300025E014492831884208D11249091F096866
:1008400041F470610F4A121F116018E00D493C31EC
:10085000884208D10B49091F096841F47041094ACF
:10086000121F11600BE007495031884207D105493A
:10087000091F096841F47021024A121F1160704774
:10088000080002400804024001460020002211F046
:10089000805F02D0054B1A6801E0054B1A680A42D6
:1008A00001D0012000E00020704700000004024059
:1008B000000002401AB103680B43036002E00368C2
:1008C0008B430360704710B50022026847F6F0734F
:1008D0009A430C6A8B6823430C6923434C69234376
:1008E0008C692343CC6923434C6A23438C6A23439A
:1008F0001A430260CB6843600B6883604B68C36037
:1009000010BD416070477047034606210622124819
:10091000018812480288A3B1012B1AD132B9A1F57E
:100920006E40EE3800D170470120FCE739B9A2F5DE
:100930006E40EE3801D10120F5E70020F3E7AB204F
:10094000F1E709B90020EEE70AB90120EBE7AB2097
:10095000E9E70020E7E7000000A0000800A4000885
:1009600010B504240B4800F00BFA0446042C01D007
:10097000204610BD0021074800F044FA0446042C2C
:1009800001D02046F5E7044800F0FAF90446204675
:10099000EFE7000000A0000800A400082DE9F047E0
:1009A0004FF0060A062600250027A8464FF0FF391B
:1009B0007448B0F800A0744806885FEA0A0074D052
:1009C000A0F56E40EE382AD0A0F5885011386DD1D0
:1009D00046B96C4800F0D4F90446042C1ED02046D9
:1009E000BDE8F087A6F56E40EE3810D1654800F0FE
:1009F000C7F90446042C01D02046F1E700216248E3
:100A000000F000FA0446042C08D02046E8E7FFF77F
:100A1000A7FF0446042C01D02046E1E7AEE07EBBF0
:100A2000002522E05748C088584931F815108842FF
:100A300001D10FFA85F94D4515D0544931F815000B
:100A4000534900F021F98046B8F1010F0BD04F490E
:100A500031F815004E49098800F048F90746042F7F
:100A600001D03846BCE7681C85B2042DDADB0021D2
:100A7000444800F0C7F90446042C02D02046AFE7F2
:100A800007E0414800F07CF90446042C1FD02046C2
:100A9000A6E7A6F57F40FF3812D13B4800F070F979
:100AA0000446042C03D020469AE711E05EE00021C2
:100AB000344800F0A7F90446042C08D020468FE7FC
:100AC000FFF74EFF0446042C01D0204688E755E08E
:100AD00036B9FFF745FF0446042C46D020467FE791
:100AE000A6F57F40FF3807D1274800F049F90446B2
:100AF000042C3AD0204673E7002523E02248801DCD
:100B00000088224931F81510884201D10FFA85F981
:100B10004D4515D01D4931F815001D4900F0B4F8B8
:100B20008046B8F1010F0BD0184931F8150018496B
:100B3000098800F0DBF80746042F01D038464FE75C
:100B4000681C85B2042DD9DB00210F4800F05AF94A
:100B50000446042C01D0204642E70A4800F010F970
:100B60000446042C01D020463AE707E0FFF7F8FEE0
:100B70000446042C01D0204632E700BF00BF042009
:100B80002EE7000000A0000800A4000800000020DC
:100B90007C0000202DE9F84F074689460425DFF840
:100BA000D0A0344800904FF00008002400264FF0F9
:100BB000000B0020FFF7A8FE8046B8F1010F04D11A
:100BC000DFF8B4A02D4800900AE0B8F1000F04D17E
:100BD000DFF8A8A02848009002E0AB20BDE8F88F1D
:100BE0004EF6EE61504600F00DF90546042D01D099
:100BF0002846F3E74946384600F078F80646042EC2
:100C000001D03046EAE700241CE01D4830F814000B
:100C1000B84215D01A4931F814001A4900F034F8D6
:100C20008346BBF1010F0BD0154931F8140015496B
:100C3000098800F05BF80646042E01D03046CDE767
:100C4000601C84B2042CE0DB009800F099F80546A3
:100C5000042D01D02846C1E70021504600F0D2F80B
:100C60000546042D01D02846B8E72846B6E700001F
:100C7000FF0301080000010800A0000800A400080C
:100C8000000000207C0000202DE9F04706460F46BA
:100C9000002445F255584FF00109124DAA46002094
:100CA000FFF732FE0446AB2C01D1BDE8F0870E48B9
:100CB00000EB842A601C0C49891E01EB80250AE0A8
:100CC000B5F80080B04505D135F8020C38804FF0FA
:100CD000000904E02D1F0AF102008542F0D800BF90
:100CE0004846E2E70000010800A000082DE9F047AF
:100CF0000646884604270025154CDFF85890012049
:100D0000FFF702FE0546AB2D01D1BDE8F087124882
:100D100000EB8524681C1049891E01EB802913E033
:100D20002068401C0FD14146204600F06BF8074672
:100D3000042F01D03846E8E73146A01C00F062F8E5
:100D400007463846E1E7241D4C45E9D38020DCE71F
:100D500000000108FF07010800A0000870B5054663
:100D60000E46002431462846FFF7C0FF0446802C7B
:100D700004D131462846FFF70DFF0446204670BDDA
:100D800030B5044604254FF4302000F067F80546DE
:100D9000042D17D10C48006940F002000A4908618F
:100DA00008464461006940F0400008614FF430207B
:100DB00000F054F805460448006941F6FD7108400A
:100DC00001490861284630BD0020024004200C493A
:100DD000C96801F00101012901D101200EE0084993
:100DE000C96811F0040F01D0022007E00449C96866
:100DF00011F0100F01D0032000E004207047000024
:100E00000020024070B504460D460426F00200F0B2
:100E100025F80646042E11D10948006940F001006A
:100E2000074908612580F00200F018F806460448DA
:100E3000006941F6FE71084001490861304670BD05
:100E40000020024002480349486003484860704758
:100E50002301674500200240AB89EFCD00B5024673
:100E60000423FFF7B3FF034603E0FFF7AFFF03469A
:100E7000521E012B01D1002AF7D102B905231846D1
:100E800000BD10B5FFF7DEFFFFF788FD10BD2DE9AF
:100E9000F041024600250026002000230024002700
:100EA00091F803C00CF00F0591F803C01CF0100F6F
:100EB00003D091F802C04CEA0505B1F800C01CF05F
:100EC000FF0F31D0146800202BE04FF0010C0CFA1A
:100ED00000F3B1F800C00CEA03069E4220D1830063
:100EE0004FF00F0C0CFA03F7BC4305FA03FC4CEA75
:100EF000040491F803C0BCF1280F06D14FF0010C97
:100F00000CFA00FCC2F814C00AE091F803C0BCF16E
:100F1000480F05D14FF0010C0CFA00FCC2F810C0CC
:100F2000401C0828D1D31460B1F800C0BCF1FF0FF9
:100F300034DD546800202EE000F1080C4FF0010869
:100F400008FA0CF3B1F800C00CEA03069E4221D166
:100F500083004FF00F0C0CFA03F7BC4305FA03FCB7
:100F60004CEA040491F803C0BCF1280F05D100F14C
:100F7000080C08FA0CF8C2F8148091F803C0BCF110
:100F8000480F07D100F1080C4FF0010808FA0CF8DF
:100F9000C2F81080401C0828CED35460BDE8F08110
:100FA0000246002093680B4201D0012000E000209F
:100FB0007047416170470161704700BFFEE700BFA5
:100FC000FEE7704770B5002100230F22C4780CB3F0
:100FD000164C246804F4E064C4F5E064210AC1F10D
:100FE0000403CA40447804FA03F18478144021438E
:100FF00009010F4C0678A155047804F01F0501245F
:10100000AC4005786D114FF0E02606EB8505C5F87C
:10101000004109E0047804F01F050124AC40054DAF
:101020000678761145F8264070BD00000CED00E012
:1010300000E400E080E100E002490143024A11605F
:10104000704700000000FA050CED00E0704700005A
:1010500029B1064A52690243044B5A6104E0034A2B
:1010600052698243014B5A617047000000100240F0
:1010700029B1064A92690243044B9A6104E0034A8B
:1010800092698243014B9A61704700000010024050
:1010900030B500210022002400232D4D6D6805F09D
:1010A0000C0121B1042905D0082923D105E0294DDF
:1010B000056022E0274D05601FE0254D6D6805F4B1
:1010C0007012234D6D6805F48034022505EB9242C1
:1010D0001CB9214D554305600BE01D4D6D6815F49D
:1010E000003F03D01C4D5543056002E0194D5543A8
:1010F000056002E0174D056000BF00BF144D6D682C
:1011000005F0F0010909154D6B5C0568DD4045608F
:101110000F4D6D6805F4E061090A104D6B5C456880
:10112000DD4085600A4D6D6805F46051C90A0B4DBC
:101130006B5C4568DD40C560054D6D6805F4404158
:10114000890B074D6B5CC568B5FBF3F5056130BDD8
:101150000010024000127A0000093D007E000020CD
:101160008E00002021B1028842F04002028004E09B
:1011700002884FF6BF731A40028070470246002073
:1011800013890B4201D0012000E000207047014686
:10119000888970478181704710B50022028802F467
:1011A00041520B884C8823438C882343CC882343AB
:1011B0000C8923434C8923438C892343CC892343C3
:1011C0001A430280838B4FF2FF74234083830B8A80
:1011D000038210BD704710B500F002F810BD00008A
:1011E000002100202E4A126842F480322C4B1A60F3
:1011F00000BF2B4A126802F40030491C10B9B1F547
:10120000A06FF6D1264A126812F4003F01D00120E7
:1012100000E00020012842D1224A126842F0100268
:10122000204B1A601A46126822F003021A601A460E
:10123000126842F002021A60194A5268184B5A604A
:101240001A4652685A601A46526842F480625A60DE
:101250001A46526822F47C125A601A46526842F4C6
:10126000E8125A601A46126842F080721A6000BF93
:101270000B4A126812F0007FFAD0094A526822F035
:101280000302074B5A601A46526842F002025A6043
:1012900000BF034A526802F00C02082AF9D17047D5
:1012A000001002400020024010B522480068401C97
:1012B0002049086001202049087000F031FD01F04C
:1012C00071FA1E480078012811D11D480088401C81
:1012D0001B49088008460088B0F57A7F07D10020B6
:1012E00016490870164908800220164908701148EE
:1012F00000680A21B0FBF1F201FB120010B90120D5
:10130000114908700B4800686421B0FBF1F201FB41
:10131000120010B901200D490870064800684FF40A
:101320007A71B0FBF1F201FB120010B901200849FB
:10133000087010BD640000205800002051000020FB
:101340005200002041000020590000205A000020D7
:101350005B00002010B51348006840F001001149FF
:10136000086008464068104908400E494860084631
:1013700000680E4908400B4908600846006820F4E0
:10138000802008600846406820F4FE0048604FF462
:101390001F008860FFF71FFF4FF0006004490860DE
:1013A00010BD0000001002400000FFF8FFFFF6FE35
:1013B00008ED00E010B5002440F22551054800F08A
:1013C00023F830B1034800F0DBF8C4B2204601F046
:1013D0000FFA10BD0038014021B1828942F4005259
:1013E000828104E082894DF6FF731A408281704742
:1013F00010B51AB1838A0B43838204E0838ACC43FD
:10140000A4B22340838210BD70B50246002400239D
:1014100000250020A1F510666A3E00D100BFC1F38F
:10142000421501F01F03012606FA03F3012D02D134
:101430009689334006E0022D02D1168A334001E03E
:10144000968A33400C12012606FA04F416883440BA
:1014500013B10CB1012000E0002070BDF0B50346CF
:101460000024002600250020A1F510676A3F00D166
:1014700000BF1846C1F3421401F01F06012707FA06
:1014800006F5012C01D10C3004E0022C01D1103002
:1014900000E014301AB107682F43076002E00768C4
:1014A000AF430760F0BD00002DE9F04786B0054668
:1014B0000E460024A24600BFA1460027B08900B115
:1014C00000BF2F462C8A4CF6FF700440F08804437E
:1014D0002C82AC894EF6F3100440B0883189084361
:1014E000718908430443AC81AC8A4FF6FF40044045
:1014F000B0890443AC8201A8FFF7CAFD1F488742A8
:1015000002D1DDF810A001E0DDF80CA0A88910F4EC
:10151000004F08D00AEBCA0000EB0A1031684900FE
:10152000B0FBF1F807E00AEBCA0000EB0A103168E3
:101530008900B0FBF1F86420B8FBF0F00401200949
:10154000642101FB1089A88910F4004F08D03220D3
:1015500000EBC900B0FBF1F000F00700044308E025
:10156000322000EB09106421B0FBF1F000F00F0015
:1015700004432C8106B0BDE8F0870000003801402C
:1015800001468888C0F30800704700BFFEE710B529
:1015900001F076FB10BD02E008C8121F08C1002A46
:1015A000FAD170477047002001E001C1121F002AE4
:1015B000FBD1704708B501210820FFF759FD4FF412
:1015C0000040ADF8000014208DF8030003208DF8D2
:1015D000020069460448FFF75AFC4FF400400249F4
:1015E0001031086008BD0000000C014070B50024F7
:1015F000002512E000F05CFC42F2283001F06AF9AC
:1016000000F03EFD0446012C05D100F013FD044618
:10161000012C00D170BD681CC5B20A2DEADB002088
:10162000F8E7000010B50024FFF72BFC002000F0C5
:1016300036F80446104884420AD1022000F022F80D
:101640000E490880032000F01DF80D49088012E0C3
:1016500000200A4908800A490880084801880220B9
:1016600000F037F806480188032000F032F80249FC
:10167000002000F038F810BD4D3C2E1F080000205F
:101680000A00002038B504460020009004F52A41E5
:1016900088B26946FFF7F8FABDF8000038BD38B5E2
:1016A000044600250020009004F52A4188B26946CE
:1016B000FFF7EAFABDF800502D0404F52A41491C51
:1016C00088B26946FFF7E0FABDF8000005442846F5
:1016D00038BD70B504460D4604F52A4188B2294646
:1016E000FFF73CFB70BD70B504460D46290C04F5B0
:1016F0002A4290B2FFF732FBA9B204F52A42521CEB
:1017000090B2FFF72BFB70BD7CB500250020019047
:101710000026009000240FE0A0A0FEF7C6FD0546BD
:10172000142D00D10AE0422D01D100207CBD64209F
:1017300000F0B0FB601C84B20A2CEDDB00BF0A2C69
:1017400001D10020F2E70A2C7DDA97480088EE21CB
:1017500000FB01F63046FEF7F9FC01AAEE219348A2
:10176000FEF710FD0546142D6ED1BDF80400EE28DD
:10177000FAD100244DE004EB4400001D8B49085CC5
:101780008DF8000004EB4400401D085C8DF801005A
:101790009DF8000030280ADB9DF80000392806DC9F
:1017A0009DF800000007000E814908550EE09DF8E5
:1017B000000041280ADB9DF80000462806DC9DF861
:1017C0000000C01F0007000E794908559DF8010070
:1017D00030280CDB9DF80100392808DC7448015DD5
:1017E0009DF8010030380844714908550FE09DF814
:1017F000010041280BDB9DF80100462807DC6C48FE
:10180000015D9DF801003738084469490855601C9E
:1018100084B2082CAFDB002450E004EB44002430F9
:101820006249085C8DF8000004EB44002530085C38
:101830008DF801009DF8000030280DDB9DF80000B8
:10184000392809DC01E0A6E09BE09DF800000007D4
:10185000000E584908550EE09DF8000041280ADBAB
:101860009DF80000462806DC9DF80000C01F000718
:10187000000E504908559DF8010030280CDB9DF8FA
:101880000100392808DC4B48015D9DF80100303823
:101890000844484908550FE09DF8010041280BDB3A
:1018A0009DF80100462807DC4248015D9DF80100D3
:1018B000373808443F490855601C84B2202CACDB03
:1018C00000245BE004EB44008C303849085C8DF860
:1018D000000004EB44008D30085C8DF801009DF899
:1018E000000030280CDB9DF80000392808DC9DF84A
:1018F00000000007010E04F120002E4A115410E0F0
:101900009DF8000041280CDB9DF80000462808DC0B
:101910009DF80000C01F0007010E04F12000254AB9
:1019200011549DF80100302811DB9DF80100392881
:101930000DDC04F120001F49095C9DF801003038DE
:101940000844C1B204F120001A4A115414E09DF871
:101950000100412810DB9DF8010046280CDC04F151
:1019600020001449095C9DF8010037380844C1B2D1
:1019700004F120000F4A1154601C84B2202CA1DB1A
:1019800004E00020FEF762FC0020CFE60020FEF716
:101990005DFC0120CAE60020C8E600002F44533257
:1019A0003433312E545854000A000020190100200D
:1019B0003800002094000020F8B500250027002002
:1019C00000900026002417E01CA0FEF76EFC0546E0
:1019D000142D00D112E0422D09D118A0FEF74CFCC5
:1019E0000546142D06D115A0FEF75FFC06E0642025
:1019F00000F050FA601CC4B20A2CE5DB00BF0A2CD0
:101A000001D10020F8BD0A2C15DAFEF761FC06466C
:101A1000012E00D100263046FEF798FB00F066FF4D
:101A200007466A4639460848FEF7DEFB0120FEF706
:101A30000DFC0120E6E70020E4E700002F445332CC
:101A40003433312E545854001901002070B500254C
:101A50007348007830B100207249087072490870EC
:101A6000724908706F480078012865D100206D49DF
:101A700008706B4908706E48007800285CD16D488A
:101A80000078022858D1FFF7B1FD0546012D33D16A
:101A900000F018FB0546012D29D1FFF78DFF054603
:101AA000012D0DD164480088401C63490880084618
:101AB00001880220FFF70DFE0120594908701FE040
:101AC000F5B95E480078401E5C490870002408E0C3
:101AD00000205B49594A127801EBC2010855601C8D
:101AE00084B2082CF4DB02204D49087008E03DB9AF
:101AF00002204B49087003E015B9022048490870DC
:101B0000002404E000204F490855601C84B2082CD2
:101B1000F8DB002404E000204B490855601C84B227
:101B2000852CF8DB002404E0002048490855601C9F
:101B300084B2B4F5FA7FF7DB3B48007801284DD139
:101B40000020394908703649087039480078002863
:101B500044D138480078022840D1374800883C49B1
:101B60000988884231DDFFF7CFFD0546012D08D1F8
:101B700000F0D4FC01203749087000203649088065
:101B800006E02DB902202649087000202949087076
:101B9000002404E000202B490855601C84B2082C66
:101BA000F8DB002404E0002027490855601C84B2BB
:101BB000852CF8DB002404E0002024490855601C33
:101BC00084B2B4F5FA7FF7DB08E01B4800882049AF
:101BD0000988884202D10220114908701348007810
:101BE00001281CD100201149087011480078B0B9B3
:101BF00010480078022812D11548008800280BDD13
:101C0000002013490880084601880320FFF761FD82
:101C100001200349087002E002200149087070BDEC
:101C2000410000204A0000204B0000204C00002012
:101C30004E0000204D000020080000204000002041
:101C40000D0300203800002094000020190100201E
:101C50000A000020510000205200002008B5012198
:101C60001020FFF705FA4FF46040ADF800000420A3
:101C70008DF8030069460248FFF709F908BD000026
:101C8000001001401F48806810F4804F0CD11E489E
:101C90000088401C1C49088008460088052806D199
:101CA00001201A49087002E00020174908801548F1
:101CB000806810F4005F0CD115480088401C14495E
:101CC000088008460088052806D1012011490870BF
:101CD00002E000200E4908800A48806810F4004F96
:101CE0000CD10D480088401C0B490880084600882C
:101CF000052806D101200949087002E000200649A4
:101D00000880704700100140440000204A00002075
:101D1000460000204B000020480000204C0000201E
:101D20002748007801281BD100032649086040009D
:101D3000091F086024480088401C23490880084681
:101D40000088B0F57A7F39D1002008801C490870DE
:101D50004FF480501B49091F0860400008602DE0C7
:101D60001748007802281CD1C0021649091F0860D4
:101D70004000091D086014480088401C1249088072
:101D800008460088B0F57A7F18D1002008800C49F9
:101D900008704FF480500B49091F0860400008602C
:101DA0000CE00748007848B90020074908804FF444
:101DB00080500449091F0860400008607047000017
:101DC00041000020140C01404200002008B5012110
:101DD0000820FFF74DF94FF44050ADF800001420F3
:101DE0008DF8030003208DF8020069460548FFF7CF
:101DF0004EF84FF4805003491031086040000860ED
:101E000008BD0000000C014000F0FEFBFFF70AFCDB
:101E1000FFF724FF00F02CFCFFF7D8FF642000F050
:101E200039F8FEF791FBFFF7C5FB00F0DDFA27E07C
:101E300014480078012804D100201249087000F0ED
:101E4000B1FC11480078012806D100200E49087025
:101E5000FFF718FFFFF7FAFD0C480078012806D1BC
:101E600000200A49087000F073F900F099FE084854
:101E70000078012804D100200549087000F0EEFE2A
:101E8000D6E7000058000020590000205A0000202A
:101E90005B00002008E042F2107101E04A1E91B29E
:101EA0000029FBDC421E90B20028F4DC70470000E1
:101EB00070B500252E48006820F070402C4908605D
:101EC0000846006840F0E04008604FF400402849B0
:101ED0001031086040F2262000F0FCFC2448006825
:101EE00020F07040224908600846006840F08040B9
:101EF0000860D62407E0601E84B2012000F0EAFCEE
:101F00000CB9002070BD1A48001D006810F4004F85
:101F1000F1D1CC2C2ADAAB2C28DD40F2822407E068
:101F2000601E84B2012000F0D5FC0CB90020E9E766
:101F30000F48001D006810F4004FF1D0B4F5EB7F9E
:101F400014DD40F25720844210DA0024012000F012
:101F5000C1FC0748006820F0704005490860084649
:101F6000006840F0804008600120CBE72846C9E7C0
:101F7000040C01402DE9F04105460024002645E00F
:101F80004FF400402A49086029481038006820F0C2
:101F900070402749103908600846006840F0E0406A
:101FA0000860022000F096FC4FF4004020490860D1
:101FB0001F481038006820F070401D491039086033
:101FC0000846006840F0804008600A2000F082FC6B
:101FD000641017480C38006810F4004F01D044F02A
:101FE0008004282000F076FC42F2107706E0781E8C
:101FF00087B200BF17B90020BDE8F0810C480C384B
:10200000006810F4004FF2D0701CC6B2082EB7DB87
:1020100007481038006820F0704005491039086002
:102020000846006840F0804008602C700120E3E71B
:10203000140C014070B50026F02000F08BF9002050
:1020400000F088F9002000F085F9002512E00B4926
:102050004819FFF78FFF064656B9002404E0002018
:1020600006490855601CC4B2852CF8DB002070BD01
:10207000681CC5B2852DEADB0120F8E7940000203A
:1020800070B50026FFF714FF332000F063F9002538
:1020900012E00B494819FFF76DFF064656B90024B8
:1020A00004E0002006490855601CC4B2082CF8DB87
:1020B000002070BD681CC5B2082DEADB0120F8E7DE
:1020C0003800002010B5002214E000210AE01D486D
:1020D000405C1D4B03EBC2035B5C984200D003E005
:1020E000481CC1B20829F2DB00BF082900D105E075
:1020F000501CC2B2154800788242E6DB00BF13488C
:10210000007882421BD111480078C82802D1C7202C
:102110000E4B1870002109E00A48435C0A480B4C3A
:10212000247800EBC4004354481CC1B20829F3DBF7
:1021300006480078401C054B1870012010BD002097
:10214000FCE70000380000200D03002040000020C4
:1021500000B57848007800287ED1774800780228BA
:10216000FAD1764800884FF47A7190FBF1F0744907
:10217000085C74490870714800884FF47A7190FBCC
:10218000F1F201FB1200642190FBF1F06C49085C54
:102190006C49487069480088642190FBF1F201FBAA
:1021A00012000A2190FBF1F06549085C65498870CE
:1021B000624800880A2190FBF1F201FB120060499D
:1021C000085C6049C870084600785D490978884213
:1021D00017D15B48C07E5B49087008464078584973
:1021E000097888420DD15648C07E56494870084645
:1021F000807853490978884203D15148C07E5149BB
:102200008870514800884FF47A7190FBF1F04C4986
:10221000085C4C4908714C4800884FF47A7190FB77
:10222000F1F201FB1200642190FBF1F04449085CDB
:102230004449487144480088642190FBF1F201FB55
:1022400012000A2190FBF1F03D49085C3D4988717C
:102250003D4800880A2100E026E090FBF1F201FBF6
:1022600012003749085C3749C8710846007934497B
:102270000978884252D13248C07E324908710846F6
:1022800040792F490978884248D12D48C07E2D4990
:102290004871084680792A49097888423ED1284801
:1022A000C07E2849887139E022480078C8B12448A6
:1022B000807B244908702248C07D48702048C07D3A
:1022C00088701F48C07EC8701D48C07E08711C48B9
:1022D000C07E48711A48C07E88711948C07EC87196
:1022E0001CE015480078022818DA1548007E1549C8
:1022F00008701348407948701148C07A88701048B7
:10230000C07EC8700E48007D08710D48407D487140
:102310000B48C07E88710A48C07EC871402000F01A
:10232000BFFC0849C02000F0C5FC882000F0B8FCC4
:1023300000BD00004E0000204D00002008000020DD
:102340000C000020280000200A00002000B5FFF744
:10235000FFFE00BD70B504464FF4004021490860FF
:1023600020480C38006820F070401E490C39086085
:102370000846006840F0E0400860002521E04FF486
:1023800000401849091D0860052000F0A3FA14F068
:10239000010F04D04FF400401249086004E04FF4EC
:1023A00000401049091D08603C2000F093FA4FF4EA
:1023B00000400C490860052000F08CFA6410681C8D
:1023C000C5B2082DDBDB07480C38006820F07040F0
:1023D00004490C3908600846006840F080400860F5
:1023E00070BD0000100C014000B591B04FF4E060EA
:1023F000FEF722FE25208DF82C0001208DF82E00FE
:102400008DF82F000BA8FEF7DDFD012144F2050039
:10241000FEF72EFE01210846FEF71AFE4FF400706B
:10242000ADF8300018208DF8330003208DF832000D
:102430000CA93648FEF72BFD4FF48060ADF8300054
:1024400004208DF8330003208DF832000CA92F48AA
:10245000FEF71DFD2E48FEF771F92E4800902E481C
:102460000190102002900A20039000200490802008
:10247000059000200690079008904FF48050099036
:1024800000200A9069462248FEF71DFA0122022127
:102490001F48FEF70FFA4FF416500D900020ADF8CC
:1024A0003800ADF83A00ADF83C00ADF840000C2023
:1024B000ADF83E000DA91748001FFEF7F5FF0122F9
:1024C00040F225511348001FFEF7C8FF012280216A
:1024D0001048001FFEF78CFF01210E48001FFEF779
:1024E0007BFF4FF40050FEF70FF90E208DF82C0003
:1024F00000208DF82D0002208DF82E0001208DF88F
:102500002F000BA8FEF75EFD11B000BD00080140D2
:1025100044000240043801404D09002010B500205D
:1025200022490870AA21214802780078401C1F4BDC
:1025300018701F488154BB21184602780078401C4F
:1025400018701B48815400240BE01A48015D17489D
:1025500002780078401C154B187015488154601C97
:10256000C4B2082CF1DB00240BE01348015D0F48D6
:1025700002780078401C0D4B18700D488154601C87
:10258000C4B2402CF1DB00F01BF800210B48FEF731
:10259000C9F8064801780948FEF7B3F90121074850
:1025A000FEF7C0F800200149087010BD4F00002060
:1025B0004D09002038000020940000204400024013
:1025C00030B50020002105E00D4A525C024490B273
:1025D0004A1CD1B20B4A12789142F5DB0312094A28
:1025E00014781278521C074D2A70054A13552A4652
:1025F00014781278521C2A70014A105530BD000020
:102600004D0900204F00002030B5164800684FF4F7
:102610007A72B0FBF2F1B1F1807F01D301201DE0AD
:1026200021F07F40401E4FF0E022506150170F22F2
:10263000002807DA13071D0E0B4B00F00F04241FB0
:102640001D5503E013071C0E084B1C5400BF00204F
:102650004FF0E022906107201061002008B100BF18
:10266000FEE730BD6800002018ED00E000E400E067
:1026700008B501210820FEF7FBFCC020ADF80000E2
:1026800014208DF8030002208DF8020069460348EB
:10269000FEF7FDFBFFF75AFE08BD0000000C0140ED
:1026A00000B51148006820F070400F4908600846E6
:1026B000006840F0C040086080200B49103108607D
:1026C00040200860012000F005F9802006491431FF
:1026D0000860012000F0FEF8402003491431086032
:1026E000012000F0F7F800BD000C014000B51248D1
:1026F000006820F07040104908600846006840F00B
:10270000C040086080200C49143108604020091F37
:102710000860012000F0DEF88020074910310860D1
:10272000012000F0D7F8402003491431086001204F
:1027300000F0D0F800BD0000000C014030B50346A9
:102740001748006820F07040154908600846006886
:1027500040F0C040086000241CE003F0010525B1F2
:1027600080200F491031086003E080200C491431AB
:10277000086040200A4910310860012000F0AAF8E2
:102780004020074914310860012000F0A3F85B10D5
:10279000601CC4B2082CE0DB012000F09BF830BDC7
:1027A000000C01400E490978012918D10D4909880A
:1027B000491C0C4A118011460988B1F57A7F0EDB5D
:1027C00000211180064A1170074A1170002004E0B0
:1027D0000021064A1154411CC8B20A28F8DB704790
:1027E000540000205600002050000020B1090020B5
:1027F00038B50546002000902E4801780078401C2E
:102800002C4A10702C48455401202C490870002097
:102810002B49088010460078042849D126480078C2
:10282000AA2835D124484078BB2831D140F2651020
:10283000ADF8000020488078ADF80200BDF8020035
:102840000006000CADF80200BDF802001A49C97874
:10285000084480B2ADF80200BDF80000BDF80210D7
:10286000884215D117480078012811D116480088F0
:10287000401C15490880084601880320FEF729FFFF
:102880000020104908701149088001201049087083
:1028900000200A4908700A49088006490870002487
:1028A00004E0002004490855601CC4B20A2CF8DB7F
:1028B00038BD000050000020B10900205400002065
:1028C00056000020510000200A0000205200002085
:1028D0004100002007E00A2101E04A1E91B20029D0
:1028E000FBDC421E90B20028F5DC704718B50020D2
:1028F0000022009249240346401CA64AD454442492
:102900000346401CD4543A240346401CD4540924A2
:102910000346401CD454002140E09F4A525C1211EF
:102920008DF800209C4A525C02F00F028DF80120C5
:102930009DF800200A2A09DA9DF800203032D4B22E
:102940000246431C98B2934B9C5408E09DF800202B
:102950003732D4B20246431C98B28E4B9C549DF839
:1029600001200A2A09DA9DF801203032D4B2024649
:10297000431C98B2874B9C5408E09DF801203732E5
:10298000D4B20246431C98B2824B9C542024024687
:10299000431C98B27F4B9C544A1C91B20829BCDB63
:1029A0000D240246431C98B27A4B9C540A240246DA
:1029B000431C98B2774B9C544D240246431C98B25A
:1029C000744B9C5445240246431C98B2714B9C5452
:1029D0004D240246431C98B26E4B9C543024024650
:1029E000431C98B26B4B9C543A240246431C98B249
:1029F000684B9C5409240246431C98B2654B9C5476
:102A0000002140E0654A525C12118DF80020634AB3
:102A1000525C02F00F028DF801209DF800200A2A76
:102A200009DA9DF800203032D4B20246431C98B235
:102A3000584B9C5408E09DF800203732D4B202462F
:102A4000431C98B2534B9C549DF801200A2A09DA82
:102A50009DF801203032D4B20246431C98B24D4B4F
:102A60009C5408E09DF801203732D4B20246431C42
:102A700098B2484B9C5420240246431C98B2454BC4
:102A80009C544A1C91B22029BCDB0D240246431CF5
:102A900098B2404B9C540A240246431C98B23D4BCA
:102AA0009C544D240246431C98B23A4B9C544524F6
:102AB0000246431C98B2374B9C544D240246431C9B
:102AC00098B2344B9C5431240246431C98B2314B8B
:102AD0009C543A240246431C98B22E4B9C54092421
:102AE0000246431C98B22B4B9C54002143E02B4BD5
:102AF00001F120029A5C12118DF8002001F12002F0
:102B00009A5C02F00F028DF801209DF800200A2A3D
:102B100009DA9DF800203032D4B20246431C98B244
:102B20001C4B9C5408E09DF800203732D4B202467A
:102B3000431C98B2174B9C549DF801200A2A09DACD
:102B40009DF801203032D4B20246431C98B2114B9A
:102B50009C5408E09DF801203732D4B20246431C51
:102B600098B20C4B9C5420240246431C98B2094B4B
:102B70009C544A1C91B22029B9DB0D240246431C07
:102B800098B2044B9C540A240246431C98B2014B51
:102B90009C5418BD1901002038000020940000202A
:102BA00070B50024002627480078002848D1264820
:102BB0000078012838D1FDF7B7FC0446142C3FD12A
:102BC0000024022020490870002517E01FA0FDF70F
:102BD0006CFB0446142C00D112E0422C09D11BA03E
:102BE000FDF74AFB0446142C06D118A0FDF75DFB47
:102BF00006E06420FFF74EF9681CC5B20A2DE5DB3C
:102C000000BF0A2D1CDAFDF763FB0646EE20B6FB7B
:102C1000F0F011490880084601880220FEF759FDAE
:102C20000020FDF713FB0BE00748007840B9FDF7E3
:102C30006BFC0446142C03D10024012002490870C7
:102C400070BD00004E0000204D0000202F44533284
:102C50003433312E545854000800002010B500249D
:102C600006480078022807D1FDF74EFC0446822C66
:102C700002D100200149087010BD00004D00002065
:102C800010B500BF08210548FEF78AF90028F9D1E0
:102C90002220FDF711FDFDF78BFC10BD000801405F
:102CA00010B50446FFF7FCFC2046FFF747FDFFF791
:102CB0001DFD10BD70B506460D46FFF7F1FC304610
:102CC000FFF73CFD002404E0285DFFF737FD601CA2
:102CD000C4B2102CF8DBFFF709FD70BDFC2C000816
:102CE000000000209400000096150008902D0008B8
:102CF0009400002094110000A615000800AA01AA63
:102D000002AA03AA000000003F065B4F666D7D0724
:102D10007F6F777C395E79713D760E38375C735002
:102D20003E6E40000000003F0000003F0000000039
:102D30000000000000000000000000000000000093
:102D40000000000000000000000000000000000083
:102D50000000000000000000000000000000000073
:102D60000000000000A24A04000000000000000073
:102D70000102030406070809000000000000010228
:102D80000304010203040607080902040608000000
:04000005080000ED02
:00000001FF
