:020000040800F2
:100000005004002001010008090400080104000850
:1000100005040008490100083D0600080000000032
:100020000000000000000000000000009D04000827
:10003000E5020008000000000B040008710500083C
:100040001B0100081B0100081B0100081B01000820
:100050001B0100081B0100081B0100081B01000810
:100060001B0100081B0100081B0100081B01000800
:100070001B0100081B0100081B0100081B010008F0
:100080001B0100081B0100081B0100081B010008E0
:100090001B0100081B0100081B0100081B010008D0
:1000A0001B0100081B0100081B0100081B010008C0
:1000B0001B0100081B0100081B0100081B010008B0
:1000C0001B0100081B0100081B0100081B010008A0
:1000D0001B0100081B0100081B0100081B01000890
:1000E0001B0100081B0100081B010008DFF80CD0F1
:1000F00000F018F8004800478D0700085004002061
:100100000648804706480047FEE7FEE7FEE7FEE7B1
:10011000FEE7FEE7FEE7FEE7FEE7FEE7DD05000897
:10012000ED000008064C074D06E0E06840F00103D2
:1001300094E8070098471034AC42F6D3FFF7DAFF93
:10014000A8080008C808000800BFFEE710B500F0C6
:1001500051F8062000F0AAF8652000F0BDF800F084
:1001600021F8044610210E4800F048F99A2C01D0DD
:10017000FA2010BD152000F099F8062000F0ACF828
:10018000012000F06CFA00F00DF80446102104483C
:1001900000F034F9512C01D11420EAE7FA20E8E705
:1001A0000008014010B5002000F002F810BD00006A
:1001B00070B5054600BF02210D4800F043F9002844
:1001C000F9D029460A4800F049F900BF0121084842
:1001D00000F038F90028F9D00A2401E0601EC4B20A
:1001E000002CFBDC024800F036F9C0B270BD000004
:1001F0000030014000B587B0012141F2040000F059
:1002000005F90121042000F001F9E020ADF8040017
:1002100003208DF8060018208DF8070001A9214859
:1002200000F061F81020ADF804008DF807000320FD
:100230008DF8060001A91B4800F055F80820ADF81C
:10024000040004208DF8070001A9164800F04BF8BF
:100250001021144800F0D2F80020ADF808004FF447
:100260008270ADF80A000020ADF80C00ADF80E0069
:10027000ADF810004FF40070ADF812001820ADF882
:1002800014000020ADF816000720ADF8180002A9F0
:10029000054800F0E5F80121034800F0C7F807B071
:1002A00000BD0000000801400030014010B50446C8
:1002B0001021084800F0A2F8012000F0DCF910211C
:1002C000044800F099F8012000F0D5F92046FFF726
:1002D0006FFF10BD0008014010B504462046FFF72F
:1002E00067FF10BD70472DE9F0410246002500264A
:1002F000002000230024002791F803C00CF00F0514
:1003000091F803C01CF0100F03D091F802C04CEA22
:100310000505B1F800C01CF0FF0F31D014680020B3
:100320002BE04FF0010C0CFA00F3B1F800C00CEA1E
:1003300003069E4220D183004FF00F0C0CFA03F706
:10034000BC4305FA03FC4CEA040491F803C0BCF179
:10035000280F06D14FF0010C0CFA00FCC2F814C0B3
:100360000AE091F803C0BCF1480F05D14FF0010C31
:100370000CFA00FCC2F810C0401C0828D1D314604D
:10038000B1F800C0BCF1FF0F34DD546800202EE04E
:1003900000F1080C4FF0010808FA0CF3B1F800C0A6
:1003A0000CEA03069E4221D183004FF00F0C0CFA99
:1003B00003F7BC4305FA03FC4CEA040491F803C0BC
:1003C000BCF1280F05D100F1080C08FA0CF8C2F8AE
:1003D000148091F803C0BCF1480F07D100F1080C5C
:1003E0004FF0010808FA0CF8C2F81080401C0828E9
:1003F000CED35460BDE8F081416170470161704720
:1004000000BFFEE700BFFEE77047704729B1064A0C
:1004100092690243044B9A6104E0034A9269824361
:10042000014B9A61704700000010024021B1028820
:1004300042F04002028004E002884FF6BF731A4087
:10044000028070470246002013890B4201D0012030
:1004500000E000207047014688897047818170471D
:1004600010B50022028802F441520B884C882343C5
:100470008C882343CC8823430C8923434C89234312
:100480008C892343CC8923431A430280838B4FF208
:10049000FF74234083830B8A038210BD704710B51D
:1004A00000F002F810BD0000002100202E4A126862
:1004B00042F480322C4B1A6000BF2B4A126802F4BF
:1004C0000030491C10B9B1F5A06FF6D1264A126868
:1004D00012F4003F01D0012000E00020012842D1A9
:1004E000224A126842F01002204B1A601A46126823
:1004F00022F003021A601A46126842F002021A60E1
:10050000194A5268184B5A601A4652685A601A467D
:10051000526842F480625A601A46526822F47C1291
:100520005A601A46526842F4E8125A601A46126833
:1005300042F080721A6000BF0B4A126812F0007F0E
:10054000FAD0094A526822F00302074B5A601A4651
:10055000526842F002025A6000BF034A526802F039
:100560000C02082AF9D17047001002400020024016
:1005700015480068401C14490860012013490870A0
:10058000114800680A21B0FBF1F201FB120010B91A
:1005900001200F4908700C4800686421B0FBF1F29B
:1005A00001FB120010B901200A49087006480068D2
:1005B0004FF47A71B0FBF1F201FB120010B9012087
:1005C0000549087070470000140000203D0000201D
:1005D0003E0000203F0000204000002010B51348DE
:1005E000006840F001001149086008464068104961
:1005F00008400E494860084600680E4908400B490B
:1006000008600846006820F48020086008464068BA
:1006100020F4FE0048604FF41F008860FFF73FFFA2
:100620004FF000600449086010BD00000010024057
:100630000000FFF8FFFFF6FE08ED00E000BFFEE758
:1006400002E008C8121F08C1002AFAD1704770479B
:10065000002001E001C1121F002AFBD1704700B544
:10066000034602E0642000F006F81800A3F101013F
:100670008BB2F7D100BD07E0482101E04A1ED1B29C
:100680000029FBDC421E90B20028F5DC7047000018
:100690000A480078012802D100200849087008485B
:1006A0000078012802D1002005490870054800782B
:1006B000012802D100200349087070473A00002049
:1006C0003B0000203C00002008B501211020FFF76E
:1006D0009DFE4FF46040ADF8000004208DF803004B
:1006E00069460248FFF7FFFD08BD00000010014009
:1006F0001F48806810F4005F0CD11E480088401C21
:100700001C49088008460088052806D101201A499E
:10071000087002E00020174908801548806810F42E
:10072000804F0CD115480088401C144908800846A9
:100730000088052806D101201149087002E0002038
:100740000E4908800A48806810F4004F0CD10D480B
:100750000088401C0B49088008460088052806D1FF
:1007600001200949087002E000200649088070470E
:1007700000100140340000203A0000203600002024
:100780003B000020380000203C00002000F042F830
:10079000FFF79AFF00F072F8642000F02DF8FFF7E1
:1007A000D5FC1FE010480078012806D100200E4932
:1007B0000870FFF79DFFFFF76BFF0C4800780128DA
:1007C00002D100200949087009480078012802D1A7
:1007D00000200749087007480078012802D100204E
:1007E00004490870DEE700003D0000203E000020C4
:1007F0003F0000204000002008E042F6E06101E0F8
:100800004A1E91B20029FBDC421E90B20028F4DCA3
:100810007047000030B5164800684FF47A72B0FB9C
:10082000F2F1B1F1807F01D301201DE021F07F4082
:10083000401E4FF0E022506150170F22002807DAC7
:1008400013071D0E0B4B00F00F04241F1D5503E072
:1008500013071C0E084B1C5400BF00204FF0E02271
:10086000906107201061002008B100BFFEE730BD95
:100870000000002018ED00E000E400E008B50121D0
:100880000820FFF7C3FDC020ADF8000014208DF84C
:10089000030002208DF8020069460248FFF723FD9D
:1008A00008BD0000000C0140C8080008000000203E
:1008B0005000000040060008180900085000002001
:1008C000000400005006000800A24A0400000000D6
:1008D00000000000010203040607080900000000F0
:1008E0003F065B4F666D7D077F6F777C395E797160
:1008F0003D760E38375C73503E6E400000000000BD
:1009000000000000000000000000000000000000E7
:080910000000000000000000DF
:04000005080000ED02
:00000001FF
